:0300280002094882
:100ED000EF1FAC0670011E4C600A7D027CC7DCFE71
:040EE000DDFC80ECC9
:010EE40022EB
:0507FB00C2B6C2B522E8
:0207CE00AD0775
:1007D000E4FB74807E00A803088006CEA2E713CE57
:1007E00013D8F8FFEDF582EF558224FF92B4D2B60C
:0A07F000C2B60BBB08DCD2B5C2B5DF
:0107FA0022DC
:10000600AA07AF051207CEAF027480A807088002C0
:10001600C313D8FCF4F5807F017E00120ED07580E4
:02002600FF22B7
:060D6E008B088A09890AC6
:100D7400E4F50DF50BE4F50CE50B75F008A4AB08F0
:100D8400250AF9E50935F0FA7E00E9250CF9EE3A71
:100D9400FA1203B0600FAF0C7401A807088002C3F5
:100DA40033D8FC420D050CE50CB408CCE50DFD7CF4
:100DB40000AF0B120006E4F50D050BE50BC3940818
:020DC40040B33A
:010DC600220A
:100EE5005389F0438901E4F58AF58CC28DC28CD211
:020EF500B92220
:0B0F1100AD07AC068C8CAF058F8A2268
:090F2700AF8CEFFEAD8AEDFF2254
:060F4100EF24FF928C2258
:100EA20053877F75985053890F438920758BF4754A
:070EB2008DF4C2ABD28E22C9
:080F39008F993099FDC2992245
:060E68008B1E8A1F892089
:100E6E00E4FEAB1EAA1FA9208E827583001203C951
:090E7E00FF6006120F390E80E935
:010E87002248
:0B0F1C00D288C289D2A8D2AFD2B8227E
:060F4700120EE5020F1C72
:0D0EF700E5336006E4F5337F01227F002221
:0D0F0400E5316006E4F5317F01227F002217
:030F4D00AF3022A0
:030F5000AF2F229E
:03000300020800F0
:10080000C0E0C0F0C083C082C0D075D000C000C0BE
:1008100001C002C003C004C005C006C007E52C70BB
:100820000CFFFE120F117F01120F418047E52C646F
:10083000017046120F278E2D8F2EE4FFFE120F112E
:10084000D3E52E94A6E52D942E400FE52E948EE54B
:100850002D94325005752C02212DD3E52E948CE574
:100860002D9426400FE52E9474E52D942A5005759D
:1008700031012125752C01212DE52C640260022116
:100880002D120F278E2D8F2EE4FFFE120F11D3E5B0
:100890002E9414E52D9402402CE52E94FCE52D9425
:1008A000055022E532131313541F2434F8C000E618
:1008B000FFE5325407FE7401A806088002C333D84E
:1008C000FCF45F8034D3E52E9426E52D9406403069
:1008D000E52E940EE52D940A5026E5321313135499
:1008E0001F2434F8C000E6FFE5325407FE7401A867
:1008F00006088002C333D8FC4FD000F605328006CC
:10090000753200752C01E532C39420402075320009
:10091000E535F4B5340FE537F4B53609853430855F
:10092000362F753301E4FF120F41752C00D007D02C
:1009300006D005D004D003D002D001D000D0D0D052
:0809400082D083D0F0D0E03238
:100E8800E4F5C9F5C875CC6675CDFCD2ADD2AFC254
:0A0E9800BD75CA6675CBFCD2CA22F4
:100A0E0047616D65206F7665722121210A00507253
:100A1E0065737320506F7765725F6B657920746FA5
:100A2E00207265706C61792E0A00596F7572207391
:100A3E00636F7265206973200057656C636F6D6517
:100A4E0020746F20706C6179205465747269732103
:100A5E000A00507265737320506F7765725F4B6535
:100A6E007920746F2073746172742E0A00FFFF0078
:100A7E00FF00000100FFFF00FFFF000000FF00006D
:100A8E000000FF01FFFF00000000FF01000000005A
:100A9E00FF00FE00FDFF000000FFFFFFFEFF000055
:070AAE000000FF00FE00FF45
:080F3000023E00FF0238000040
:0A0E1C008F178D188B198A1A891B95
:100E2600E4F51CE51C75F002A4AB19251BF9E51ABF
:100E360035F0FA9000011203C92518FFAA1AA91B5A
:100E460075F002E51CA4F58285F0831203C9251707
:100E560075F008A4244B2FF87601051CE51CB40494
:010E6600C2C9
:010E67002268
:1006CF007522007523007524437525007526007566
:0806DF00273E7B007A007941FF
:0606E7008B1F8A2089210F
:1006ED00E53B7002E1CDE4F528E52875F002A4ABF9
:1006FD00222524F9E52335F0FA9000011203C9FFF4
:10070D00AB1FAA20A9219000011203C92FFFAB2214
:10071D00AA23A92475F002E528A4F58285F0831299
:10072D0003C9FEAB1FAA20A9211203B02E75F00834
:10073D00A4244B2FF8E4F60528E528B404ABAB252B
:10074D00AA26A9271203B0AB1FAA20A9211203F6CE
:10075D00AB25AA26A9279000011203C9AB1FAA2019
:10076D00A921900001120418E4F528E52875F0027E
:10077D00A4AB222524F9E52335F0FA9000011203EC
:10078D00C9FFAB1FAA20A9219000011203C92FFF99
:10079D00AB22AA23A92475F002E528A4F58285F0E1
:1007AD00831203C9FEAB1FAA20A9211203B02E7517
:1007BD00F008A4244B2FF876010528E528B404ABE6
:0107CD002209
:060C6C008B178A1889199C
:100C7200E4F51DE51D75F002A4AB1A251CF9E51B70
:100C820035F0FA9000011203C9FFAB17AA18A9198F
:100C92009000011203C92FFFAB1AAA1BA91C75F001
:100CA20002E51DA4F58285F0831203C9FEAB17AAE3
:100CB20018A9191203B02E75F008A4244B2FF8E6D8
:100CC200601E7BFF7A0A790E120E687F0A7E00127E
:100CD2000ED07BFF7A0A791C120E68E4F53BFF22E4
:0B0CE200051DE51DC39404408A7F013E
:010CED0022E4
:100CEE00E54075F0078485F03CE4FFE53C75F008BF
:100CFE00A4247BF582E4340AF58375F002EF120426
:100D0E00C2E493FEEF25E02443F8A606E53C75F019
:100D1E0008A4247CF582E4340AF58375F002EF1200
:100D2E0004C2E493FEEF25E02444F8A6060FBF04A8
:100D3E00BA754104754207751A00751B00751C4380
:100D4E007B007A007941120C6CE53C75F008A42406
:100D5E007BF9740A35F0FA7BFF7D077F04020E1CC7
:1004CE00E4F53FF522752300752443F525752600C6
:0804DE0075273EFB7A0079410D
:0604E6008B1F8A20892112
:1004EC00752A01AB25AA26A9271203B0FFAB1FAAB8
:1004FC0020A9211203B02FF528AB25AA26A92790F5
:10050C0000011203C9FFAB1FAA20A9219000011200
:10051C0003C92FF529E4F52BAF2BEF3395E0FEEF54
:10052C0025E0FFEE33FEAB22E5242FF9E5233EFA5E
:10053C009000011203C9FFAB1FAA20A92190000152
:10054C001203C92FFDAF2BEF3395E0FEEF25E0FF33
:10055C00EE33AB22AA23A9248F82F5831203C9FFA1
:10056C00AB1FAA20A9211203B02F75F008A4244BAD
:10057C002DF8E4F6052BE52BB4049DE4F52BAF2BFD
:10058C00EF3395E0FEEF25E0FFEE33AB22AA23A973
:10059C00248F82F5831203C9FF3395E0FEAD28ED5D
:1005AC003395E0FCED2FFFEC3EFEC364809480405D
:1005BC0049D3EF9407EE64809480503EAF2BEF3319
:1005CC0095E0FEEF25E0FFEE33FEE92FF9EA3EFA67
:1005DC009000011203C9FF3395E0FEAD29ED339570
:1005EC00E0FCED2FFFEC3EFEC364809480400BD307
:1005FC00EF9407EE648094804003E4F52A052BE524
:10060C002B64046002A18AE4F52BAF2BEF3395E049
:10061C00FEEF25E0FFEE33FEAB22E5242FF9E523B8
:10062C003EFA9000011203C92529FDAF2BEF33953B
:10063C00E0FEEF25E0FFEE33AA23A9248F82F58399
:10064C001203C9252875F008A4244B2DF8E6600385
:10065C00E4F52A052BE52BB404B0E4F52BAF2BEF16
:10066C003395E0FEEF25E0FFEE33FEAB22E5242FC1
:10067C00F9E5233EFA9000011203C9FFAB1FAA2033
:10068C00A9219000011203C92FFDAF2BEF3395E088
:10069C00FEEF25E0FFEE33AB22AA23A9248F82F5CF
:1006AC00831203C9FFAB1FAA20A9211203B02F7517
:1006BC00F008A4244B2DF87601052BE52BB4049DF2
:0206CC00AF2A53
:0106CE002209
:100EB900E4FEEE75F008A4244B2FF8E67002FF2239
:060EC9000EBE08EE7F01E1
:010ECF002200
:100B5100E4FDFCECC39408503DAF04120EB9EF6004
:100B610032EC04FFEFC39408501FE4FEEE75F00869
:100B7100A4244B2FF8E6FBEE75F008A4244A2FF8C5
:100B8100A6030EBE08E60F80DB740A253AF53A7D0E
:100B91000180C00C80BDED60457BFF7A0A79381277
:100BA1000E68E53A75F0648475F00A84E5F0243046
:100BB100FF120F39E53A75F00A8475F00A84E5F001
:100BC1002430FF120F39E53A75F00A84E5F024303C
:0E0BD100FF120F397F2E120F397F0A120F39D3
:010BDF0022F3
:06002E008B178A188919E6
:10003400E4F526F525AF25EF3395E0FEEF25E0FF47
:10004400EE33FEAB1AE51C2FF9E51B3EFA900001D6
:100054001203C9F404FDE52525E0241DF8A605AB2B
:100064001AAA1BA91C8F828E831203C9FFE52525BA
:10007400E0241EF8A6070525E525B404B8E4F52513
:10008400AF25EF3395E0FEEF25E0FFEE33FEAB1A2C
:10009400E51C2FF9E51B3EFA9000011203C9FFABE2
:1000A40017AA18A9199000011203C92FFDAF25EF53
:1000B4003395E0FEEF25E0FFEE33AB1AAA1BA91C33
:1000C4008F82F5831203C9FFAB17AA18A91912036B
:1000D400B02F75F008A4244B2DF8E4F60525E5258A
:1000E400B4049DE4F525AB17AA18A91990000112D0
:1000F40003C9FFE52525E0241EF8E62FFF1203B00F
:10010400FEE52525E0241DF8E62E75F008A4244B11
:100114002FF8E670037526010525E525B404C7E428
:10012400F525AB17AA18A9191203B0FF3395E0FE01
:10013400E52525E0241DF8E6FD3395E0FCEF2DFFD1
:10014400EE3CFEC364809480403BD3EF9407EE649E
:1001540080948050309000011203C9FF3395E0FE73
:10016400E52525E0241EF8E6FD3395E0FCEF2DFFA0
:10017400EE3CFEC364809480400BD3EF9407EE649E
:100184008094804003E4F5260525E52564047092F7
:10019400E52670024153E4F525E52525E0241DF804
:1001A400E6FDAF25EF3395E0FEEF25E0FFEE33AB40
:1001B4001AAA1BA91C8F82F583ED12044BE5252591
:1001C400E0241EF8E6FDAF25EF3395E0FEEF25E0D1
:1001D400FFEE33FEE92FF9EA3EFA900001ED120436
:1001E4004B0525E525B404B1E4F525AF25EF33959A
:1001F400E0FEEF25E0FFEE33FEAB1AE51C2FF9E538
:100204001B3EFA9000011203C9FFAB17AA18A919E3
:100214009000011203C92FFDAF25EF3395E0FEEFE7
:1002240025E0FFEE33AB1AAA1BA91C8F82F58312BB
:1002340003C9FFAB17AA18A9191203B02F75F00848
:10024400A4244B2DF876010525E525B4049D22E46C
:10025400F525AF25EF3395E0FEEF25E0FFEE33FE05
:10026400AB1AE51C2FF9E51B3EFA9000011203C9F5
:10027400FFAB17AA18A9199000011203C92FFDAFEB
:1002840025EF3395E0FEEF25E0FFEE33AB1AAA1B12
:10029400A91C8F82F5831203C9FFAB17AA18A919E9
:1002A4001203B02F75F008A4244B2DF87601052510
:0502B400E525B4049DE6
:0102B9002222
:060DC7008B178A18891940
:100DCD00781D7C007D007BFF7A0A79B37E007F025F
:100DDD0012038A851A22851B23851C24752500750F
:100DED00260075271DAB17AA18A9191204E6EF6086
:100DFD001D851A22851B23851C247525007526004B
:0E0E0D0075271DAB17AA18A9191206E780C594
:010E1B0022B4
:10094800120E88120F471207FB120EA27FF47E01C7
:10095800120ED07BFF7A0A7947120E687F0A7E0052
:10096800120ED07BFF7A0A7960120E68120EF7EF2A
:100978007006120F04EF60F4120F508F3DE53D240E
:10098800E8605524FC606524D7602124EB600F24BF
:1009980052706B753EFF1204CEEF60628009753E9F
:1009A800011204CEEF60571206CF8052E53B704E1D
:1009B800F515E4F516E51575F008A4244B2516F889
:1009C800E4F60516E516B408EC0515E515B408E2D5
:0609D800120CEE753B015C
:1009DE008026751A00751B00751C437B007A007902
:1009EE004112002E8012751A00751B00751C437B78
:1009FE00007A007941120DC7E4F53E753FFF217470
:03002B00020AB511
:100AB500C0E0C0F0C083C082C0D075D000C000C007
:0D0AC50001C002C003C004C005C006C00788
:100AD200C2CF75CA6675CBFC0539E5397002053897
:100AE2000540AE38FF7C007D0A12046DED4C700AA1
:100AF200FB7A00794B120D6E803AC3E5399433E5E7
:100B0200389401402FE53B6025752200752300755E
:100B1200244375250075260075273E7B001204E2EA
:100B2200EF60051206CF8006120B51120CEE7538DB
:040B32000075390011
:100B3600D007D006D005D004D003D002D001D00013
:0B0B4600D0D0D082D083D0F0D0E032BD
:03000000020BE010
:0C0BE000787FE4F6D8FD75818A020C27AE
:1002BA00E709F608DFFA8046E709F208DFFA803E26
:1002CA0088828C83E709F0A3DFFA8032E309F60813
:1002DA00DFFA8078E309F208DFFA807088828C837B
:1002EA00E309F0A3DFFA806489828A83E0A3F6082F
:1002FA00DFFA805889828A83E0A3F208DFFA804C09
:10030A0080D280FA80C680D4806980F280338010DF
:10031A0080A680EA809A80A880DA80E280CA803348
:10032A0089828A83ECFAE493A3C8C582C8CCC583C0
:10033A00CCF0A3C8C582C8CCC583CCDFE9DEE78090
:10034A000D89828A83E493A3F608DFF9ECFAA9F00F
:10035A00EDFB2289828A83ECFAE0A3C8C582C8CC65
:10036A00C583CCF0A3C8C582C8CCC583CCDFEADE7E
:10037A00E880DB89828A83E493A3F208DFF980CCE0
:10038A0088F0EF60010E4E60C388F0ED2402B404D9
:10039A000050B9F582EB2402B4040050AF23234580
:0603AA00822390030A7398
:1003B000BB010689828A83E0225002E722BBFE024B
:0903C000E32289828A83E493227E
:1003C900BB010CE58229F582E5833AF583E02250E9
:1003D90006E92582F8E622BBFE06E92582F8E22233
:0D03E900E58229F582E5833AF583E493224D
:1003F600BB010989828A83F8E028F022500327F797
:1004060022BBFE05F8E328F3228A838982F8E49367
:0204160028229A
:10041800BB010FF8E58229F582E5833AF583E028E8
:10042800F0225009C58229F8E58226F622BBFE098A
:10043800C58229F8E22582F222F8EA2583F583E9C4
:03044800932822D4
:10044B00F8BB010DE58229F582E5833AF583E8F0E7
:10045B00225006E92582C8F622BBFE05E92582C893
:02046B00F2227B
:10046D00BC000BBE0029EF8DF084FFADF022E4CC73
:10047D00F875F008EF2FFFEE33FEEC33FCEE9DEC3C
:10048D00984005FCEE9DFE0FD5F0E9E4CEFD22ED82
:10049D00F8F5F0EE8420D21CFEADF075F008EF2FCC
:1004AD00FFED33FD4007985006D5F0F222C398FDBD
:0504BD000FD5F0EA225A
:0C04C200A42582F582E5F03583F5832245
:100BEC00020028E493A3F8E493A34003F68001F2F7
:100BFC0008DFF48029E493A3F85407240CC8C3330A
:100C0C00C4540F4420C8834004F456800146F6DFD8
:100C1C00E4800B0102040810204080900F30E47E29
:100C2C00019360BCA3FF543F30E509541FFEE493CD
:100C3C00A360010ECF54C025E060A840B8E493A394
:100C4C00FAE493A3F8E493A3C8C582C8CAC583CABF
:100C5C00F0A3C8C582C8CAC583CADFE9DEE780BE77
:010F380000B8
:00000001FF
